{
  "_format": "hh-sol-artifact-1",
  "contractName": "MyEpicGame",
  "sourceName": "contracts/MyEpicGame.sol",
  "abi": [
    {
      "inputs": [
        {
          "internalType": "string[]",
          "name": "characterNames",
          "type": "string[]"
        },
        {
          "internalType": "string[]",
          "name": "characterImageURIs",
          "type": "string[]"
        },
        {
          "internalType": "uint256[]",
          "name": "characterHp",
          "type": "uint256[]"
        },
        {
          "internalType": "uint256[]",
          "name": "characterAttackDmg",
          "type": "uint256[]"
        },
        {
          "internalType": "string",
          "name": "bossName",
          "type": "string"
        },
        {
          "internalType": "string",
          "name": "bossImageURI",
          "type": "string"
        },
        {
          "internalType": "uint256",
          "name": "bossHp",
          "type": "uint256"
        },
        {
          "internalType": "uint256",
          "name": "bossAttackDamage",
          "type": "uint256"
        }
      ],
      "stateMutability": "nonpayable",
      "type": "constructor"
    },
    {
      "anonymous": false,
      "inputs": [
        {
          "indexed": true,
          "internalType": "address",
          "name": "owner",
          "type": "address"
        },
        {
          "indexed": true,
          "internalType": "address",
          "name": "approved",
          "type": "address"
        },
        {
          "indexed": true,
          "internalType": "uint256",
          "name": "tokenId",
          "type": "uint256"
        }
      ],
      "name": "Approval",
      "type": "event"
    },
    {
      "anonymous": false,
      "inputs": [
        {
          "indexed": true,
          "internalType": "address",
          "name": "owner",
          "type": "address"
        },
        {
          "indexed": true,
          "internalType": "address",
          "name": "operator",
          "type": "address"
        },
        {
          "indexed": false,
          "internalType": "bool",
          "name": "approved",
          "type": "bool"
        }
      ],
      "name": "ApprovalForAll",
      "type": "event"
    },
    {
      "anonymous": false,
      "inputs": [
        {
          "indexed": false,
          "internalType": "uint256",
          "name": "newBossHp",
          "type": "uint256"
        },
        {
          "indexed": false,
          "internalType": "uint256",
          "name": "newPlayerHp",
          "type": "uint256"
        }
      ],
      "name": "AttackComplete",
      "type": "event"
    },
    {
      "anonymous": false,
      "inputs": [
        {
          "indexed": false,
          "internalType": "address",
          "name": "sender",
          "type": "address"
        },
        {
          "indexed": false,
          "internalType": "uint256",
          "name": "tokenId",
          "type": "uint256"
        },
        {
          "indexed": false,
          "internalType": "uint256",
          "name": "characterIndex",
          "type": "uint256"
        }
      ],
      "name": "CharacterNFTMinted",
      "type": "event"
    },
    {
      "anonymous": false,
      "inputs": [
        {
          "indexed": true,
          "internalType": "address",
          "name": "from",
          "type": "address"
        },
        {
          "indexed": true,
          "internalType": "address",
          "name": "to",
          "type": "address"
        },
        {
          "indexed": true,
          "internalType": "uint256",
          "name": "tokenId",
          "type": "uint256"
        }
      ],
      "name": "Transfer",
      "type": "event"
    },
    {
      "inputs": [
        {
          "internalType": "address",
          "name": "to",
          "type": "address"
        },
        {
          "internalType": "uint256",
          "name": "tokenId",
          "type": "uint256"
        }
      ],
      "name": "approve",
      "outputs": [],
      "stateMutability": "nonpayable",
      "type": "function"
    },
    {
      "inputs": [],
      "name": "attackBoss",
      "outputs": [],
      "stateMutability": "nonpayable",
      "type": "function"
    },
    {
      "inputs": [
        {
          "internalType": "address",
          "name": "owner",
          "type": "address"
        }
      ],
      "name": "balanceOf",
      "outputs": [
        {
          "internalType": "uint256",
          "name": "",
          "type": "uint256"
        }
      ],
      "stateMutability": "view",
      "type": "function"
    },
    {
      "inputs": [],
      "name": "bigBoss",
      "outputs": [
        {
          "internalType": "string",
          "name": "name",
          "type": "string"
        },
        {
          "internalType": "string",
          "name": "imageURI",
          "type": "string"
        },
        {
          "internalType": "uint256",
          "name": "hp",
          "type": "uint256"
        },
        {
          "internalType": "uint256",
          "name": "maxHp",
          "type": "uint256"
        },
        {
          "internalType": "uint256",
          "name": "attackDamage",
          "type": "uint256"
        }
      ],
      "stateMutability": "view",
      "type": "function"
    },
    {
      "inputs": [],
      "name": "checkIfUserHasNFT",
      "outputs": [
        {
          "components": [
            {
              "internalType": "uint256",
              "name": "characterIndex",
              "type": "uint256"
            },
            {
              "internalType": "string",
              "name": "name",
              "type": "string"
            },
            {
              "internalType": "string",
              "name": "imageURI",
              "type": "string"
            },
            {
              "internalType": "uint256",
              "name": "hp",
              "type": "uint256"
            },
            {
              "internalType": "uint256",
              "name": "maxHp",
              "type": "uint256"
            },
            {
              "internalType": "uint256",
              "name": "attackDamage",
              "type": "uint256"
            }
          ],
          "internalType": "struct MyEpicGame.CharacterAttributes",
          "name": "",
          "type": "tuple"
        }
      ],
      "stateMutability": "view",
      "type": "function"
    },
    {
      "inputs": [],
      "name": "getAllDefaultCharacters",
      "outputs": [
        {
          "components": [
            {
              "internalType": "uint256",
              "name": "characterIndex",
              "type": "uint256"
            },
            {
              "internalType": "string",
              "name": "name",
              "type": "string"
            },
            {
              "internalType": "string",
              "name": "imageURI",
              "type": "string"
            },
            {
              "internalType": "uint256",
              "name": "hp",
              "type": "uint256"
            },
            {
              "internalType": "uint256",
              "name": "maxHp",
              "type": "uint256"
            },
            {
              "internalType": "uint256",
              "name": "attackDamage",
              "type": "uint256"
            }
          ],
          "internalType": "struct MyEpicGame.CharacterAttributes[]",
          "name": "",
          "type": "tuple[]"
        }
      ],
      "stateMutability": "view",
      "type": "function"
    },
    {
      "inputs": [
        {
          "internalType": "uint256",
          "name": "tokenId",
          "type": "uint256"
        }
      ],
      "name": "getApproved",
      "outputs": [
        {
          "internalType": "address",
          "name": "",
          "type": "address"
        }
      ],
      "stateMutability": "view",
      "type": "function"
    },
    {
      "inputs": [],
      "name": "getBigBoss",
      "outputs": [
        {
          "components": [
            {
              "internalType": "string",
              "name": "name",
              "type": "string"
            },
            {
              "internalType": "string",
              "name": "imageURI",
              "type": "string"
            },
            {
              "internalType": "uint256",
              "name": "hp",
              "type": "uint256"
            },
            {
              "internalType": "uint256",
              "name": "maxHp",
              "type": "uint256"
            },
            {
              "internalType": "uint256",
              "name": "attackDamage",
              "type": "uint256"
            }
          ],
          "internalType": "struct MyEpicGame.BigBoss",
          "name": "",
          "type": "tuple"
        }
      ],
      "stateMutability": "view",
      "type": "function"
    },
    {
      "inputs": [
        {
          "internalType": "address",
          "name": "owner",
          "type": "address"
        },
        {
          "internalType": "address",
          "name": "operator",
          "type": "address"
        }
      ],
      "name": "isApprovedForAll",
      "outputs": [
        {
          "internalType": "bool",
          "name": "",
          "type": "bool"
        }
      ],
      "stateMutability": "view",
      "type": "function"
    },
    {
      "inputs": [],
      "name": "kizuGusuri",
      "outputs": [],
      "stateMutability": "nonpayable",
      "type": "function"
    },
    {
      "inputs": [
        {
          "internalType": "uint256",
          "name": "_characterIndex",
          "type": "uint256"
        }
      ],
      "name": "mintCharacterNFT",
      "outputs": [],
      "stateMutability": "nonpayable",
      "type": "function"
    },
    {
      "inputs": [],
      "name": "name",
      "outputs": [
        {
          "internalType": "string",
          "name": "",
          "type": "string"
        }
      ],
      "stateMutability": "view",
      "type": "function"
    },
    {
      "inputs": [
        {
          "internalType": "uint256",
          "name": "",
          "type": "uint256"
        }
      ],
      "name": "nftHolderAttributes",
      "outputs": [
        {
          "internalType": "uint256",
          "name": "characterIndex",
          "type": "uint256"
        },
        {
          "internalType": "string",
          "name": "name",
          "type": "string"
        },
        {
          "internalType": "string",
          "name": "imageURI",
          "type": "string"
        },
        {
          "internalType": "uint256",
          "name": "hp",
          "type": "uint256"
        },
        {
          "internalType": "uint256",
          "name": "maxHp",
          "type": "uint256"
        },
        {
          "internalType": "uint256",
          "name": "attackDamage",
          "type": "uint256"
        }
      ],
      "stateMutability": "view",
      "type": "function"
    },
    {
      "inputs": [
        {
          "internalType": "address",
          "name": "",
          "type": "address"
        }
      ],
      "name": "nftHolders",
      "outputs": [
        {
          "internalType": "uint256",
          "name": "",
          "type": "uint256"
        }
      ],
      "stateMutability": "view",
      "type": "function"
    },
    {
      "inputs": [
        {
          "internalType": "uint256",
          "name": "tokenId",
          "type": "uint256"
        }
      ],
      "name": "ownerOf",
      "outputs": [
        {
          "internalType": "address",
          "name": "",
          "type": "address"
        }
      ],
      "stateMutability": "view",
      "type": "function"
    },
    {
      "inputs": [
        {
          "internalType": "address",
          "name": "from",
          "type": "address"
        },
        {
          "internalType": "address",
          "name": "to",
          "type": "address"
        },
        {
          "internalType": "uint256",
          "name": "tokenId",
          "type": "uint256"
        }
      ],
      "name": "safeTransferFrom",
      "outputs": [],
      "stateMutability": "nonpayable",
      "type": "function"
    },
    {
      "inputs": [
        {
          "internalType": "address",
          "name": "from",
          "type": "address"
        },
        {
          "internalType": "address",
          "name": "to",
          "type": "address"
        },
        {
          "internalType": "uint256",
          "name": "tokenId",
          "type": "uint256"
        },
        {
          "internalType": "bytes",
          "name": "_data",
          "type": "bytes"
        }
      ],
      "name": "safeTransferFrom",
      "outputs": [],
      "stateMutability": "nonpayable",
      "type": "function"
    },
    {
      "inputs": [
        {
          "internalType": "address",
          "name": "operator",
          "type": "address"
        },
        {
          "internalType": "bool",
          "name": "approved",
          "type": "bool"
        }
      ],
      "name": "setApprovalForAll",
      "outputs": [],
      "stateMutability": "nonpayable",
      "type": "function"
    },
    {
      "inputs": [
        {
          "internalType": "bytes4",
          "name": "interfaceId",
          "type": "bytes4"
        }
      ],
      "name": "supportsInterface",
      "outputs": [
        {
          "internalType": "bool",
          "name": "",
          "type": "bool"
        }
      ],
      "stateMutability": "view",
      "type": "function"
    },
    {
      "inputs": [],
      "name": "symbol",
      "outputs": [
        {
          "internalType": "string",
          "name": "",
          "type": "string"
        }
      ],
      "stateMutability": "view",
      "type": "function"
    },
    {
      "inputs": [
        {
          "internalType": "uint256",
          "name": "_tokenId",
          "type": "uint256"
        }
      ],
      "name": "tokenURI",
      "outputs": [
        {
          "internalType": "string",
          "name": "",
          "type": "string"
        }
      ],
      "stateMutability": "view",
      "type": "function"
    },
    {
      "inputs": [
        {
          "internalType": "address",
          "name": "from",
          "type": "address"
        },
        {
          "internalType": "address",
          "name": "to",
          "type": "address"
        },
        {
          "internalType": "uint256",
          "name": "tokenId",
          "type": "uint256"
        }
      ],
      "name": "transferFrom",
      "outputs": [],
      "stateMutability": "nonpayable",
      "type": "function"
    }
  ],
  "bytecode": "0x60806040523480156200001157600080fd5b50604051620059ac380380620059ac833981810160405281019062000037919062000a85565b6040518060400160405280600881526020017f506f6b656d6f6e730000000000000000000000000000000000000000000000008152506040518060400160405280600781526020017f504f4b454d4f4e000000000000000000000000000000000000000000000000008152508160009080519060200190620000bb929190620007ed565b508060019080519060200190620000d4929190620007ed565b5050506040518060a0016040528085815260200184815260200183815260200183815260200182815250600660008201518160000190805190602001906200011e929190620007ed565b5060208201518160010190805190602001906200013d929190620007ed565b50604082015181600201556060820151816003015560808201518160040155905050620002c06040518060600160405280602a815260200162005982602a9139600660000180546200018f9062000e08565b80601f0160208091040260200160405190810160405280929190818152602001828054620001bd9062000e08565b80156200020e5780601f10620001e2576101008083540402835291602001916200020e565b820191906000526020600020905b815481529060010190602001808311620001f057829003601f168201915b5050505050600660020154600660010180546200022b9062000e08565b80601f0160208091040260200160405190810160405280929190818152602001828054620002599062000e08565b8015620002aa5780601f106200027e57610100808354040283529160200191620002aa565b820191906000526020600020905b8154815290600101906020018083116200028c57829003601f168201915b50505050506200070260201b62001cef1760201c565b60005b8851811015620006dc57600c6040518060c001604052808381526020018b84815181106200031a577f4e487b7100000000000000000000000000000000000000000000000000000000600052603260045260246000fd5b602002602001015181526020018a848151811062000361577f4e487b7100000000000000000000000000000000000000000000000000000000600052603260045260246000fd5b60200260200101518152602001898481518110620003a8577f4e487b7100000000000000000000000000000000000000000000000000000000600052603260045260246000fd5b60200260200101518152602001898481518110620003ef577f4e487b7100000000000000000000000000000000000000000000000000000000600052603260045260246000fd5b6020026020010151815260200188848151811062000436577f4e487b7100000000000000000000000000000000000000000000000000000000600052603260045260246000fd5b6020026020010151815250908060018154018082558091505060019003906000526020600020906006020160009091909190915060008201518160000155602082015181600101908051906020019062000492929190620007ed565b506040820151816002019080519060200190620004b1929190620007ed565b50606082015181600301556080820151816004015560a0820151816005015550506000600c82815481106200050f577f4e487b7100000000000000000000000000000000000000000000000000000000600052603260045260246000fd5b90600052602060002090600602016040518060c001604052908160008201548152602001600182018054620005449062000e08565b80601f0160208091040260200160405190810160405280929190818152602001828054620005729062000e08565b8015620005c35780601f106200059757610100808354040283529160200191620005c3565b820191906000526020600020905b815481529060010190602001808311620005a557829003601f168201915b50505050508152602001600282018054620005de9062000e08565b80601f01602080910402602001604051908101604052809291908181526020018280546200060c9062000e08565b80156200065d5780601f1062000631576101008083540402835291602001916200065d565b820191906000526020600020905b8154815290600101906020018083116200063f57829003601f168201915b5050505050815260200160038201548152602001600482015481526020016005820154815250509050620006c46040518060600160405280602581526020016200595d602591398260200151836060015184604001516200070260201b62001cef1760201c565b50600181620006d4919062000d6b565b9050620002c3565b50620006f4600b620007ae60201b62001d911760201c565b505050505050505062000f2c565b620007a8848484846040516024016200071f949392919062000c30565b6040516020818303038152906040527f8d142cdd000000000000000000000000000000000000000000000000000000007bffffffffffffffffffffffffffffffffffffffffffffffffffffffff19166020820180517bffffffffffffffffffffffffffffffffffffffffffffffffffffffff8381831617835250505050620007c460201b60201c565b50505050565b6001816000016000828254019250508190555050565b60008151905060006a636f6e736f6c652e6c6f679050602083016000808483855afa5050505050565b828054620007fb9062000e08565b90600052602060002090601f0160209004810192826200081f57600085556200086b565b82601f106200083a57805160ff19168380011785556200086b565b828001600101855582156200086b579182015b828111156200086a5782518255916020019190600101906200084d565b5b5090506200087a91906200087e565b5090565b5b80821115620008995760008160009055506001016200087f565b5090565b6000620008b4620008ae8462000cbb565b62000c92565b90508083825260208201905082856020860282011115620008d457600080fd5b60005b858110156200092357815167ffffffffffffffff811115620008f857600080fd5b80860162000907898262000a41565b85526020850194506020840193505050600181019050620008d7565b5050509392505050565b6000620009446200093e8462000cea565b62000c92565b905080838252602082019050828560208602820111156200096457600080fd5b60005b858110156200099857816200097d888262000a6e565b84526020840193506020830192505060018101905062000967565b5050509392505050565b6000620009b9620009b38462000d19565b62000c92565b905082815260208101848484011115620009d257600080fd5b620009df84828562000dd2565b509392505050565b600082601f830112620009f957600080fd5b815162000a0b8482602086016200089d565b91505092915050565b600082601f83011262000a2657600080fd5b815162000a388482602086016200092d565b91505092915050565b600082601f83011262000a5357600080fd5b815162000a65848260208601620009a2565b91505092915050565b60008151905062000a7f8162000f12565b92915050565b600080600080600080600080610100898b03121562000aa357600080fd5b600089015167ffffffffffffffff81111562000abe57600080fd5b62000acc8b828c01620009e7565b985050602089015167ffffffffffffffff81111562000aea57600080fd5b62000af88b828c01620009e7565b975050604089015167ffffffffffffffff81111562000b1657600080fd5b62000b248b828c0162000a14565b965050606089015167ffffffffffffffff81111562000b4257600080fd5b62000b508b828c0162000a14565b955050608089015167ffffffffffffffff81111562000b6e57600080fd5b62000b7c8b828c0162000a41565b94505060a089015167ffffffffffffffff81111562000b9a57600080fd5b62000ba88b828c0162000a41565b93505060c062000bbb8b828c0162000a6e565b92505060e062000bce8b828c0162000a6e565b9150509295985092959890939650565b600062000beb8262000d4f565b62000bf7818562000d5a565b935062000c0981856020860162000dd2565b62000c148162000f01565b840191505092915050565b62000c2a8162000dc8565b82525050565b6000608082019050818103600083015262000c4c818762000bde565b9050818103602083015262000c62818662000bde565b905062000c73604083018562000c1f565b818103606083015262000c87818462000bde565b905095945050505050565b600062000c9e62000cb1565b905062000cac828262000e3e565b919050565b6000604051905090565b600067ffffffffffffffff82111562000cd95762000cd862000ed2565b5b602082029050602081019050919050565b600067ffffffffffffffff82111562000d085762000d0762000ed2565b5b602082029050602081019050919050565b600067ffffffffffffffff82111562000d375762000d3662000ed2565b5b62000d428262000f01565b9050602081019050919050565b600081519050919050565b600082825260208201905092915050565b600062000d788262000dc8565b915062000d858362000dc8565b9250827fffffffffffffffffffffffffffffffffffffffffffffffffffffffffffffffff0382111562000dbd5762000dbc62000e74565b5b828201905092915050565b6000819050919050565b60005b8381101562000df257808201518184015260208101905062000dd5565b8381111562000e02576000848401525b50505050565b6000600282049050600182168062000e2157607f821691505b6020821081141562000e385762000e3762000ea3565b5b50919050565b62000e498262000f01565b810181811067ffffffffffffffff8211171562000e6b5762000e6a62000ed2565b5b80604052505050565b7f4e487b7100000000000000000000000000000000000000000000000000000000600052601160045260246000fd5b7f4e487b7100000000000000000000000000000000000000000000000000000000600052602260045260246000fd5b7f4e487b7100000000000000000000000000000000000000000000000000000000600052604160045260246000fd5b6000601f19601f8301169050919050565b62000f1d8162000dc8565b811462000f2957600080fd5b50565b614a218062000f3c6000396000f3fe608060405234801561001057600080fd5b50600436106101425760003560e01c806398da4c95116100b8578063c83d47081161007c578063c83d470814610392578063c87b56dd1461039c578063c8cf27f4146103cc578063d4f24c5b146103ea578063e985e9c5146103f4578063f8b81ef71461042457610142565b806398da4c95146102e5578063a22cb4651461031a578063a9c3267914610336578063b88d4fde14610358578063b953084e1461037457610142565b806323b872dd1161010a57806323b872dd146101ff57806342842e0e1461021b5780636352211e1461023757806370a08231146102675780637df124a11461029757806395d89b41146102c757610142565b806301ffc9a7146101475780630665f9611461017757806306fdde0314610195578063081812fc146101b3578063095ea7b3146101e3575b600080fd5b610161600480360381019061015c9190613162565b610440565b60405161016e91906139c7565b60405180910390f35b61017f610522565b60405161018c9190613d60565b60405180910390f35b61019d61067e565b6040516101aa91906139e2565b60405180910390f35b6101cd60048036038101906101c891906131b4565b610710565b6040516101da9190613907565b60405180910390f35b6101fd60048036038101906101f89190613126565b610795565b005b61021960048036038101906102149190613020565b6108ad565b005b61023560048036038101906102309190613020565b61090d565b005b610251600480360381019061024c91906131b4565b61092d565b60405161025e9190613907565b60405180910390f35b610281600480360381019061027c9190612fbb565b6109df565b60405161028e9190613da4565b60405180910390f35b6102b160048036038101906102ac9190612fbb565b610a97565b6040516102be9190613da4565b60405180910390f35b6102cf610aaf565b6040516102dc91906139e2565b60405180910390f35b6102ff60048036038101906102fa91906131b4565b610b41565b60405161031196959493929190613dbf565b60405180910390f35b610334600480360381019061032f91906130ea565b610c8d565b005b61033e610ca3565b60405161034f959493929190613ab1565b60405180910390f35b610372600480360381019061036d919061306f565b610dd7565b005b61037c610e39565b60405161038991906139a5565b60405180910390f35b61039a610fe4565b005b6103b660048036038101906103b191906131b4565b6110e9565b6040516103c391906139e2565b60405180910390f35b6103d4611304565b6040516103e19190613d82565b60405180910390f35b6103f26114dc565b005b61040e60048036038101906104099190612fe4565b611867565b60405161041b91906139c7565b60405180910390f35b61043e600480360381019061043991906131b4565b6118fb565b005b60007f80ac58cd000000000000000000000000000000000000000000000000000000007bffffffffffffffffffffffffffffffffffffffffffffffffffffffff1916827bffffffffffffffffffffffffffffffffffffffffffffffffffffffff1916148061050b57507f5b5e139f000000000000000000000000000000000000000000000000000000007bffffffffffffffffffffffffffffffffffffffffffffffffffffffff1916827bffffffffffffffffffffffffffffffffffffffffffffffffffffffff1916145b8061051b575061051a82611da7565b5b9050919050565b61052a612de2565b60066040518060a001604052908160008201805461054790614105565b80601f016020809104026020016040519081016040528092919081815260200182805461057390614105565b80156105c05780601f10610595576101008083540402835291602001916105c0565b820191906000526020600020905b8154815290600101906020018083116105a357829003601f168201915b505050505081526020016001820180546105d990614105565b80601f016020809104026020016040519081016040528092919081815260200182805461060590614105565b80156106525780601f1061062757610100808354040283529160200191610652565b820191906000526020600020905b81548152906001019060200180831161063557829003601f168201915b505050505081526020016002820154815260200160038201548152602001600482015481525050905090565b60606000805461068d90614105565b80601f01602080910402602001604051908101604052809291908181526020018280546106b990614105565b80156107065780601f106106db57610100808354040283529160200191610706565b820191906000526020600020905b8154815290600101906020018083116106e957829003601f168201915b5050505050905090565b600061071b82611e11565b61075a576040517f08c379a000000000000000000000000000000000000000000000000000000000815260040161075190613d00565b60405180910390fd5b6004600083815260200190815260200160002060009054906101000a900473ffffffffffffffffffffffffffffffffffffffff169050919050565b60006107a08261092d565b90508073ffffffffffffffffffffffffffffffffffffffff168373ffffffffffffffffffffffffffffffffffffffff161415610811576040517f08c379a000000000000000000000000000000000000000000000000000000000815260040161080890613d20565b60405180910390fd5b8073ffffffffffffffffffffffffffffffffffffffff16610830611e7d565b73ffffffffffffffffffffffffffffffffffffffff16148061085f575061085e81610859611e7d565b611867565b5b61089e576040517f08c379a000000000000000000000000000000000000000000000000000000000815260040161089590613c60565b60405180910390fd5b6108a88383611e85565b505050565b6108be6108b8611e7d565b82611f3e565b6108fd576040517f08c379a00000000000000000000000000000000000000000000000000000000081526004016108f490613d40565b60405180910390fd5b61090883838361201c565b505050565b61092883838360405180602001604052806000815250610dd7565b505050565b6000806002600084815260200190815260200160002060009054906101000a900473ffffffffffffffffffffffffffffffffffffffff169050600073ffffffffffffffffffffffffffffffffffffffff168173ffffffffffffffffffffffffffffffffffffffff1614156109d6576040517f08c379a00000000000000000000000000000000000000000000000000000000081526004016109cd90613ca0565b60405180910390fd5b80915050919050565b60008073ffffffffffffffffffffffffffffffffffffffff168273ffffffffffffffffffffffffffffffffffffffff161415610a50576040517f08c379a0000000000000000000000000000000000000000000000000000000008152600401610a4790613c80565b60405180910390fd5b600360008373ffffffffffffffffffffffffffffffffffffffff1673ffffffffffffffffffffffffffffffffffffffff168152602001908152602001600020549050919050565b600e6020528060005260406000206000915090505481565b606060018054610abe90614105565b80601f0160208091040260200160405190810160405280929190818152602001828054610aea90614105565b8015610b375780601f10610b0c57610100808354040283529160200191610b37565b820191906000526020600020905b815481529060010190602001808311610b1a57829003601f168201915b5050505050905090565b600d602052806000526040600020600091509050806000015490806001018054610b6a90614105565b80601f0160208091040260200160405190810160405280929190818152602001828054610b9690614105565b8015610be35780601f10610bb857610100808354040283529160200191610be3565b820191906000526020600020905b815481529060010190602001808311610bc657829003601f168201915b505050505090806002018054610bf890614105565b80601f0160208091040260200160405190810160405280929190818152602001828054610c2490614105565b8015610c715780601f10610c4657610100808354040283529160200191610c71565b820191906000526020600020905b815481529060010190602001808311610c5457829003601f168201915b5050505050908060030154908060040154908060050154905086565b610c9f610c98611e7d565b8383612283565b5050565b6006806000018054610cb490614105565b80601f0160208091040260200160405190810160405280929190818152602001828054610ce090614105565b8015610d2d5780601f10610d0257610100808354040283529160200191610d2d565b820191906000526020600020905b815481529060010190602001808311610d1057829003601f168201915b505050505090806001018054610d4290614105565b80601f0160208091040260200160405190810160405280929190818152602001828054610d6e90614105565b8015610dbb5780601f10610d9057610100808354040283529160200191610dbb565b820191906000526020600020905b815481529060010190602001808311610d9e57829003601f168201915b5050505050908060020154908060030154908060040154905085565b610de8610de2611e7d565b83611f3e565b610e27576040517f08c379a0000000000000000000000000000000000000000000000000000000008152600401610e1e90613d40565b60405180910390fd5b610e33848484846123f0565b50505050565b6060600c805480602002602001604051908101604052809291908181526020016000905b82821015610fdb57838290600052602060002090600602016040518060c001604052908160008201548152602001600182018054610e9a90614105565b80601f0160208091040260200160405190810160405280929190818152602001828054610ec690614105565b8015610f135780601f10610ee857610100808354040283529160200191610f13565b820191906000526020600020905b815481529060010190602001808311610ef657829003601f168201915b50505050508152602001600282018054610f2c90614105565b80601f0160208091040260200160405190810160405280929190818152602001828054610f5890614105565b8015610fa55780601f10610f7a57610100808354040283529160200191610fa5565b820191906000526020600020905b815481529060010190602001808311610f8857829003601f168201915b50505050508152602001600382015481526020016004820154815260200160058201548152505081526020019060010190610e5d565b50505050905090565b6000600e60003373ffffffffffffffffffffffffffffffffffffffff1673ffffffffffffffffffffffffffffffffffffffff1681526020019081526020016000205490506000600d60008381526020019081526020016000209050600060066002015411611087576040517f08c379a000000000000000000000000000000000000000000000000000000000815260040161107e90613bc0565b60405180910390fd5b601481600301600082825461109c9190613f3a565b925050819055507f838ab28464562786a6c4ab2311964b82fa60bd9b14aa7e856af1f3f18d41a41460066002015482600301546040516110dd929190613e2e565b60405180910390a15050565b60606000600d60008481526020019081526020016000206040518060c00160405290816000820154815260200160018201805461112590614105565b80601f016020809104026020016040519081016040528092919081815260200182805461115190614105565b801561119e5780601f106111735761010080835404028352916020019161119e565b820191906000526020600020905b81548152906001019060200180831161118157829003601f168201915b505050505081526020016002820180546111b790614105565b80601f01602080910402602001604051908101604052809291908181526020018280546111e390614105565b80156112305780601f1061120557610100808354040283529160200191611230565b820191906000526020600020905b81548152906001019060200180831161121357829003601f168201915b50505050508152602001600382015481526020016004820154815260200160058201548152505090506000611268826060015161244c565b90506000611279836080015161244c565b9050600061128a8460a0015161244c565b905060006112d0856020015161129f8961244c565b87604001518787876040516020016112bc96959493929190613840565b6040516020818303038152906040526125f9565b90506000816040516020016112e591906138e5565b6040516020818303038152906040529050809650505050505050919050565b61130c612e11565b6000600e60003373ffffffffffffffffffffffffffffffffffffffff1673ffffffffffffffffffffffffffffffffffffffff16815260200190815260200160002054905060008111156114cb57600d60008281526020019081526020016000206040518060c00160405290816000820154815260200160018201805461139190614105565b80601f01602080910402602001604051908101604052809291908181526020018280546113bd90614105565b801561140a5780601f106113df5761010080835404028352916020019161140a565b820191906000526020600020905b8154815290600101906020018083116113ed57829003601f168201915b5050505050815260200160028201805461142390614105565b80601f016020809104026020016040519081016040528092919081815260200182805461144f90614105565b801561149c5780601f106114715761010080835404028352916020019161149c565b820191906000526020600020905b81548152906001019060200180831161147f57829003601f168201915b5050505050815260200160038201548152602001600482015481526020016005820154815250509150506114d9565b6114d3612e11565b80925050505b90565b6000600e60003373ffffffffffffffffffffffffffffffffffffffff1673ffffffffffffffffffffffffffffffffffffffff1681526020019081526020016000205490506000600d600083815260200190815260200160002090506115ef6040518060600160405280603c81526020016149b0603c913982600101805461156290614105565b80601f016020809104026020016040519081016040528092919081815260200182805461158e90614105565b80156115db5780601f106115b0576101008083540402835291602001916115db565b820191906000526020600020905b8154815290600101906020018083116115be57829003601f168201915b5050505050836003015484600501546127b7565b6116c76040518060400160405280601b81526020017f426f73732025732068617320257320485020616e6420257320414400000000008152506006600001805461163890614105565b80601f016020809104026020016040519081016040528092919081815260200182805461166490614105565b80156116b15780601f10611686576101008083540402835291602001916116b1565b820191906000526020600020905b81548152906001019060200180831161169457829003601f168201915b50505050506006600201546006600401546127b7565b600081600301541161170e576040517f08c379a000000000000000000000000000000000000000000000000000000000815260040161170590613cc0565b60405180910390fd5b600060066002015411611756576040517f08c379a000000000000000000000000000000000000000000000000000000000815260040161174d90613bc0565b60405180910390fd5b80600501546006600201541015611777576000600660020181905550611796565b806005015460066002015461178c919061401b565b6006600201819055505b600660040154816003015410156117b657600081600301819055506117d4565b60066004015481600301546117cb919061401b565b81600301819055505b6117fb6040518060600160405280602581526020016148f560259139600660020154612859565b61182160405180606001604052806028815260200161495a602891398260030154612859565b7f838ab28464562786a6c4ab2311964b82fa60bd9b14aa7e856af1f3f18d41a414600660020154826003015460405161185b929190613e2e565b60405180910390a15050565b6000600560008473ffffffffffffffffffffffffffffffffffffffff1673ffffffffffffffffffffffffffffffffffffffff16815260200190815260200160002060008373ffffffffffffffffffffffffffffffffffffffff1673ffffffffffffffffffffffffffffffffffffffff16815260200190815260200160002060009054906101000a900460ff16905092915050565b6000611907600b6128f5565b90506119133382612903565b6040518060c00160405280838152602001600c848154811061195e577f4e487b7100000000000000000000000000000000000000000000000000000000600052603260045260246000fd5b9060005260206000209060060201600101805461197a90614105565b80601f01602080910402602001604051908101604052809291908181526020018280546119a690614105565b80156119f35780601f106119c8576101008083540402835291602001916119f3565b820191906000526020600020905b8154815290600101906020018083116119d657829003601f168201915b50505050508152602001600c8481548110611a37577f4e487b7100000000000000000000000000000000000000000000000000000000600052603260045260246000fd5b90600052602060002090600602016002018054611a5390614105565b80601f0160208091040260200160405190810160405280929190818152602001828054611a7f90614105565b8015611acc5780601f10611aa157610100808354040283529160200191611acc565b820191906000526020600020905b815481529060010190602001808311611aaf57829003601f168201915b50505050508152602001600c8481548110611b10577f4e487b7100000000000000000000000000000000000000000000000000000000600052603260045260246000fd5b9060005260206000209060060201600301548152602001600c8481548110611b61577f4e487b7100000000000000000000000000000000000000000000000000000000600052603260045260246000fd5b9060005260206000209060060201600401548152602001600c8481548110611bb2577f4e487b7100000000000000000000000000000000000000000000000000000000600052603260045260246000fd5b906000526020600020906006020160050154815250600d6000838152602001908152602001600020600082015181600001556020820151816001019080519060200190611c00929190612e47565b506040820151816002019080519060200190611c1d929190612e47565b50606082015181600301556080820151816004015560a08201518160050155905050611c626040518060600160405280602e8152602001614982602e91398284612921565b80600e60003373ffffffffffffffffffffffffffffffffffffffff1673ffffffffffffffffffffffffffffffffffffffff16815260200190815260200160002081905550611cb0600b611d91565b7f4bc303fd457a97b4691b9af582ce71868a3d258638c8d4f8c60988a0f0bfb8cd338284604051611ce39392919061396e565b60405180910390a15050565b611d8b84848484604051602401611d099493929190613a04565b6040516020818303038152906040527f8d142cdd000000000000000000000000000000000000000000000000000000007bffffffffffffffffffffffffffffffffffffffffffffffffffffffff19166020820180517bffffffffffffffffffffffffffffffffffffffffffffffffffffffff83818316178352505050506129c0565b50505050565b6001816000016000828254019250508190555050565b60007f01ffc9a7000000000000000000000000000000000000000000000000000000007bffffffffffffffffffffffffffffffffffffffffffffffffffffffff1916827bffffffffffffffffffffffffffffffffffffffffffffffffffffffff1916149050919050565b60008073ffffffffffffffffffffffffffffffffffffffff166002600084815260200190815260200160002060009054906101000a900473ffffffffffffffffffffffffffffffffffffffff1673ffffffffffffffffffffffffffffffffffffffff1614159050919050565b600033905090565b816004600083815260200190815260200160002060006101000a81548173ffffffffffffffffffffffffffffffffffffffff021916908373ffffffffffffffffffffffffffffffffffffffff160217905550808273ffffffffffffffffffffffffffffffffffffffff16611ef88361092d565b73ffffffffffffffffffffffffffffffffffffffff167f8c5be1e5ebec7d5bd14f71427d1e84f3dd0314c0f7b2291e5b200ac8c7c3b92560405160405180910390a45050565b6000611f4982611e11565b611f88576040517f08c379a0000000000000000000000000000000000000000000000000000000008152600401611f7f90613c40565b60405180910390fd5b6000611f938361092d565b90508073ffffffffffffffffffffffffffffffffffffffff168473ffffffffffffffffffffffffffffffffffffffff16148061200257508373ffffffffffffffffffffffffffffffffffffffff16611fea84610710565b73ffffffffffffffffffffffffffffffffffffffff16145b8061201357506120128185611867565b5b91505092915050565b8273ffffffffffffffffffffffffffffffffffffffff1661203c8261092d565b73ffffffffffffffffffffffffffffffffffffffff1614612092576040517f08c379a000000000000000000000000000000000000000000000000000000000815260040161208990613ba0565b60405180910390fd5b600073ffffffffffffffffffffffffffffffffffffffff168273ffffffffffffffffffffffffffffffffffffffff161415612102576040517f08c379a00000000000000000000000000000000000000000000000000000000081526004016120f990613c00565b60405180910390fd5b61210d8383836129e9565b612118600082611e85565b6001600360008573ffffffffffffffffffffffffffffffffffffffff1673ffffffffffffffffffffffffffffffffffffffff1681526020019081526020016000206000828254612168919061401b565b925050819055506001600360008473ffffffffffffffffffffffffffffffffffffffff1673ffffffffffffffffffffffffffffffffffffffff16815260200190815260200160002060008282546121bf9190613f3a565b92505081905550816002600083815260200190815260200160002060006101000a81548173ffffffffffffffffffffffffffffffffffffffff021916908373ffffffffffffffffffffffffffffffffffffffff160217905550808273ffffffffffffffffffffffffffffffffffffffff168473ffffffffffffffffffffffffffffffffffffffff167fddf252ad1be2c89b69c2b068fc378daa952ba7f163c4a11628f55a4df523b3ef60405160405180910390a461227e8383836129ee565b505050565b8173ffffffffffffffffffffffffffffffffffffffff168373ffffffffffffffffffffffffffffffffffffffff1614156122f2576040517f08c379a00000000000000000000000000000000000000000000000000000000081526004016122e990613c20565b60405180910390fd5b80600560008573ffffffffffffffffffffffffffffffffffffffff1673ffffffffffffffffffffffffffffffffffffffff16815260200190815260200160002060008473ffffffffffffffffffffffffffffffffffffffff1673ffffffffffffffffffffffffffffffffffffffff16815260200190815260200160002060006101000a81548160ff0219169083151502179055508173ffffffffffffffffffffffffffffffffffffffff168373ffffffffffffffffffffffffffffffffffffffff167f17307eab39ab6107e8899845ad3d59bd9653f200f220920489ca2b5937696c31836040516123e391906139c7565b60405180910390a3505050565b6123fb84848461201c565b612407848484846129f3565b612446576040517f08c379a000000000000000000000000000000000000000000000000000000000815260040161243d90613b80565b60405180910390fd5b50505050565b60606000821415612494576040518060400160405280600181526020017f300000000000000000000000000000000000000000000000000000000000000081525090506125f4565b600082905060005b600082146124c65780806124af90614168565b915050600a826124bf9190613f90565b915061249c565b60008167ffffffffffffffff811115612508577f4e487b7100000000000000000000000000000000000000000000000000000000600052604160045260246000fd5b6040519080825280601f01601f19166020018201604052801561253a5781602001600182028036833780820191505090505b5090505b600085146125ed57600182612553919061401b565b9150600a8561256291906141b1565b603061256e9190613f3a565b60f81b8183815181106125aa577f4e487b7100000000000000000000000000000000000000000000000000000000600052603260045260246000fd5b60200101907effffffffffffffffffffffffffffffffffffffffffffffffffffffffffffff1916908160001a905350600a856125e69190613f90565b945061253e565b8093505050505b919050565b6060600082519050600081141561262257604051806020016040528060008152509150506127b2565b600060036002836126339190613f3a565b61263d9190613f90565b60046126499190613fc1565b9050600060208261265a9190613f3a565b67ffffffffffffffff811115612699577f4e487b7100000000000000000000000000000000000000000000000000000000600052604160045260246000fd5b6040519080825280601f01601f1916602001820160405280156126cb5781602001600182028036833780820191505090505b509050600060405180606001604052806040815260200161491a604091399050600181016020830160005b8681101561276f5760038101905062ffffff818a015116603f8160121c168401518060081b905060ff603f83600c1c1686015116810190508060081b905060ff603f8360061c1686015116810190508060081b905060ff603f831686015116810190508060e01b905080845260048401935050506126f6565b5060038606600181146127895760028114612799576127a4565b613d3d60f01b60028303526127a4565b603d60f81b60018303525b508484525050819450505050505b919050565b612853848484846040516024016127d19493929190613a5e565b6040516020818303038152906040527fd5cf17d0000000000000000000000000000000000000000000000000000000007bffffffffffffffffffffffffffffffffffffffffffffffffffffffff19166020820180517bffffffffffffffffffffffffffffffffffffffffffffffffffffffff83818316178352505050506129c0565b50505050565b6128f1828260405160240161286f929190613b12565b6040516020818303038152906040527f9710a9d0000000000000000000000000000000000000000000000000000000007bffffffffffffffffffffffffffffffffffffffffffffffffffffffff19166020820180517bffffffffffffffffffffffffffffffffffffffffffffffffffffffff83818316178352505050506129c0565b5050565b600081600001549050919050565b61291d828260405180602001604052806000815250612b8a565b5050565b6129bb83838360405160240161293993929190613b42565b6040516020818303038152906040527f969cdd03000000000000000000000000000000000000000000000000000000007bffffffffffffffffffffffffffffffffffffffffffffffffffffffff19166020820180517bffffffffffffffffffffffffffffffffffffffffffffffffffffffff83818316178352505050506129c0565b505050565b60008151905060006a636f6e736f6c652e6c6f679050602083016000808483855afa5050505050565b505050565b505050565b6000612a148473ffffffffffffffffffffffffffffffffffffffff16612be5565b15612b7d578373ffffffffffffffffffffffffffffffffffffffff1663150b7a02612a3d611e7d565b8786866040518563ffffffff1660e01b8152600401612a5f9493929190613922565b602060405180830381600087803b158015612a7957600080fd5b505af1925050508015612aaa57506040513d601f19601f82011682018060405250810190612aa7919061318b565b60015b612b2d573d8060008114612ada576040519150601f19603f3d011682016040523d82523d6000602084013e612adf565b606091505b50600081511415612b25576040517f08c379a0000000000000000000000000000000000000000000000000000000008152600401612b1c90613b80565b60405180910390fd5b805181602001fd5b63150b7a0260e01b7bffffffffffffffffffffffffffffffffffffffffffffffffffffffff1916817bffffffffffffffffffffffffffffffffffffffffffffffffffffffff191614915050612b82565b600190505b949350505050565b612b948383612c08565b612ba160008484846129f3565b612be0576040517f08c379a0000000000000000000000000000000000000000000000000000000008152600401612bd790613b80565b60405180910390fd5b505050565b6000808273ffffffffffffffffffffffffffffffffffffffff163b119050919050565b600073ffffffffffffffffffffffffffffffffffffffff168273ffffffffffffffffffffffffffffffffffffffff161415612c78576040517f08c379a0000000000000000000000000000000000000000000000000000000008152600401612c6f90613ce0565b60405180910390fd5b612c8181611e11565b15612cc1576040517f08c379a0000000000000000000000000000000000000000000000000000000008152600401612cb890613be0565b60405180910390fd5b612ccd600083836129e9565b6001600360008473ffffffffffffffffffffffffffffffffffffffff1673ffffffffffffffffffffffffffffffffffffffff1681526020019081526020016000206000828254612d1d9190613f3a565b92505081905550816002600083815260200190815260200160002060006101000a81548173ffffffffffffffffffffffffffffffffffffffff021916908373ffffffffffffffffffffffffffffffffffffffff160217905550808273ffffffffffffffffffffffffffffffffffffffff16600073ffffffffffffffffffffffffffffffffffffffff167fddf252ad1be2c89b69c2b068fc378daa952ba7f163c4a11628f55a4df523b3ef60405160405180910390a4612dde600083836129ee565b5050565b6040518060a0016040528060608152602001606081526020016000815260200160008152602001600081525090565b6040518060c001604052806000815260200160608152602001606081526020016000815260200160008152602001600081525090565b828054612e5390614105565b90600052602060002090601f016020900481019282612e755760008555612ebc565b82601f10612e8e57805160ff1916838001178555612ebc565b82800160010185558215612ebc579182015b82811115612ebb578251825591602001919060010190612ea0565b5b509050612ec99190612ecd565b5090565b5b80821115612ee6576000816000905550600101612ece565b5090565b6000612efd612ef884613e7c565b613e57565b905082815260208101848484011115612f1557600080fd5b612f208482856140c3565b509392505050565b600081359050612f3781614898565b92915050565b600081359050612f4c816148af565b92915050565b600081359050612f61816148c6565b92915050565b600081519050612f76816148c6565b92915050565b600082601f830112612f8d57600080fd5b8135612f9d848260208601612eea565b91505092915050565b600081359050612fb5816148dd565b92915050565b600060208284031215612fcd57600080fd5b6000612fdb84828501612f28565b91505092915050565b60008060408385031215612ff757600080fd5b600061300585828601612f28565b925050602061301685828601612f28565b9150509250929050565b60008060006060848603121561303557600080fd5b600061304386828701612f28565b935050602061305486828701612f28565b925050604061306586828701612fa6565b9150509250925092565b6000806000806080858703121561308557600080fd5b600061309387828801612f28565b94505060206130a487828801612f28565b93505060406130b587828801612fa6565b925050606085013567ffffffffffffffff8111156130d257600080fd5b6130de87828801612f7c565b91505092959194509250565b600080604083850312156130fd57600080fd5b600061310b85828601612f28565b925050602061311c85828601612f3d565b9150509250929050565b6000806040838503121561313957600080fd5b600061314785828601612f28565b925050602061315885828601612fa6565b9150509250929050565b60006020828403121561317457600080fd5b600061318284828501612f52565b91505092915050565b60006020828403121561319d57600080fd5b60006131ab84828501612f67565b91505092915050565b6000602082840312156131c657600080fd5b60006131d484828501612fa6565b91505092915050565b60006131e98383613702565b905092915050565b6131fa8161404f565b82525050565b600061320b82613ebd565b6132158185613eeb565b93508360208202850161322785613ead565b8060005b85811015613263578484038952815161324485826131dd565b945061324f83613ede565b925060208a0199505060018101905061322b565b50829750879550505050505092915050565b61327e81614061565b82525050565b600061328f82613ec8565b6132998185613efc565b93506132a98185602086016140d2565b6132b28161429e565b840191505092915050565b60006132c882613ed3565b6132d28185613f0d565b93506132e28185602086016140d2565b6132eb8161429e565b840191505092915050565b600061330182613ed3565b61330b8185613f1e565b935061331b8185602086016140d2565b6133248161429e565b840191505092915050565b600061333a82613ed3565b6133448185613f2f565b93506133548185602086016140d2565b80840191505092915050565b600061336d600b83613f2f565b9150613378826142af565b600b82019050919050565b6000613390603283613f1e565b915061339b826142d8565b604082019050919050565b60006133b3602583613f1e565b91506133be82614327565b604082019050919050565b60006133d6602883613f1e565b91506133e182614376565b604082019050919050565b60006133f9601c83613f1e565b9150613404826143c5565b602082019050919050565b600061341c603283613f2f565b9150613427826143ee565b603282019050919050565b600061343f600e83613f2f565b915061344a8261443d565b600e82019050919050565b6000613462602483613f1e565b915061346d82614466565b604082019050919050565b6000613485601983613f1e565b9150613490826144b5565b602082019050919050565b60006134a8602c83613f1e565b91506134b3826144de565b604082019050919050565b60006134cb603883613f1e565b91506134d68261452d565b604082019050919050565b60006134ee602a83613f1e565b91506134f98261457c565b604082019050919050565b6000613511602983613f1e565b915061351c826145cb565b604082019050919050565b6000613534602d83613f1e565b915061353f8261461a565b604082019050919050565b6000613557600483613f2f565b915061356282614669565b600482019050919050565b600061357a602083613f1e565b915061358582614692565b602082019050919050565b600061359d602c83613f1e565b91506135a8826146bb565b604082019050919050565b60006135c0600a83613f2f565b91506135cb8261470a565b600a82019050919050565b60006135e3602183613f1e565b91506135ee82614733565b604082019050919050565b6000613606601d83613f2f565b915061361182614782565b601d82019050919050565b6000613629603183613f1e565b9150613634826147ab565b604082019050919050565b600061364c603d83613f2f565b9150613657826147fa565b603d82019050919050565b600061366f602d83613f2f565b915061367a82614849565b602d82019050919050565b600060a08301600083015184820360008601526136a282826132bd565b915050602083015184820360208601526136bc82826132bd565b91505060408301516136d16040860182613822565b5060608301516136e46060860182613822565b5060808301516136f76080860182613822565b508091505092915050565b600060c08301600083015161371a6000860182613822565b506020830151848203602086015261373282826132bd565b9150506040830151848203604086015261374c82826132bd565b91505060608301516137616060860182613822565b5060808301516137746080860182613822565b5060a083015161378760a0860182613822565b508091505092915050565b600060c0830160008301516137aa6000860182613822565b50602083015184820360208601526137c282826132bd565b915050604083015184820360408601526137dc82826132bd565b91505060608301516137f16060860182613822565b5060808301516138046080860182613822565b5060a083015161381760a0860182613822565b508091505092915050565b61382b816140b9565b82525050565b61383a816140b9565b82525050565b600061384b826135b3565b9150613857828961332f565b915061386282613360565b915061386e828861332f565b91506138798261340f565b9150613885828761332f565b91506138908261363f565b915061389c828661332f565b91506138a782613432565b91506138b3828561332f565b91506138be82613662565b91506138ca828461332f565b91506138d58261354a565b9150819050979650505050505050565b60006138f0826135f9565b91506138fc828461332f565b915081905092915050565b600060208201905061391c60008301846131f1565b92915050565b600060808201905061393760008301876131f1565b61394460208301866131f1565b6139516040830185613831565b81810360608301526139638184613284565b905095945050505050565b600060608201905061398360008301866131f1565b6139906020830185613831565b61399d6040830184613831565b949350505050565b600060208201905081810360008301526139bf8184613200565b905092915050565b60006020820190506139dc6000830184613275565b92915050565b600060208201905081810360008301526139fc81846132f6565b905092915050565b60006080820190508181036000830152613a1e81876132f6565b90508181036020830152613a3281866132f6565b9050613a416040830185613831565b8181036060830152613a5381846132f6565b905095945050505050565b60006080820190508181036000830152613a7881876132f6565b90508181036020830152613a8c81866132f6565b9050613a9b6040830185613831565b613aa86060830184613831565b95945050505050565b600060a0820190508181036000830152613acb81886132f6565b90508181036020830152613adf81876132f6565b9050613aee6040830186613831565b613afb6060830185613831565b613b086080830184613831565b9695505050505050565b60006040820190508181036000830152613b2c81856132f6565b9050613b3b6020830184613831565b9392505050565b60006060820190508181036000830152613b5c81866132f6565b9050613b6b6020830185613831565b613b786040830184613831565b949350505050565b60006020820190508181036000830152613b9981613383565b9050919050565b60006020820190508181036000830152613bb9816133a6565b9050919050565b60006020820190508181036000830152613bd9816133c9565b9050919050565b60006020820190508181036000830152613bf9816133ec565b9050919050565b60006020820190508181036000830152613c1981613455565b9050919050565b60006020820190508181036000830152613c3981613478565b9050919050565b60006020820190508181036000830152613c598161349b565b9050919050565b60006020820190508181036000830152613c79816134be565b9050919050565b60006020820190508181036000830152613c99816134e1565b9050919050565b60006020820190508181036000830152613cb981613504565b9050919050565b60006020820190508181036000830152613cd981613527565b9050919050565b60006020820190508181036000830152613cf98161356d565b9050919050565b60006020820190508181036000830152613d1981613590565b9050919050565b60006020820190508181036000830152613d39816135d6565b9050919050565b60006020820190508181036000830152613d598161361c565b9050919050565b60006020820190508181036000830152613d7a8184613685565b905092915050565b60006020820190508181036000830152613d9c8184613792565b905092915050565b6000602082019050613db96000830184613831565b92915050565b600060c082019050613dd46000830189613831565b8181036020830152613de681886132f6565b90508181036040830152613dfa81876132f6565b9050613e096060830186613831565b613e166080830185613831565b613e2360a0830184613831565b979650505050505050565b6000604082019050613e436000830185613831565b613e506020830184613831565b9392505050565b6000613e61613e72565b9050613e6d8282614137565b919050565b6000604051905090565b600067ffffffffffffffff821115613e9757613e9661426f565b5b613ea08261429e565b9050602081019050919050565b6000819050602082019050919050565b600081519050919050565b600081519050919050565b600081519050919050565b6000602082019050919050565b600082825260208201905092915050565b600082825260208201905092915050565b600082825260208201905092915050565b600082825260208201905092915050565b600081905092915050565b6000613f45826140b9565b9150613f50836140b9565b9250827fffffffffffffffffffffffffffffffffffffffffffffffffffffffffffffffff03821115613f8557613f846141e2565b5b828201905092915050565b6000613f9b826140b9565b9150613fa6836140b9565b925082613fb657613fb5614211565b5b828204905092915050565b6000613fcc826140b9565b9150613fd7836140b9565b9250817fffffffffffffffffffffffffffffffffffffffffffffffffffffffffffffffff04831182151516156140105761400f6141e2565b5b828202905092915050565b6000614026826140b9565b9150614031836140b9565b925082821015614044576140436141e2565b5b828203905092915050565b600061405a82614099565b9050919050565b60008115159050919050565b60007fffffffff0000000000000000000000000000000000000000000000000000000082169050919050565b600073ffffffffffffffffffffffffffffffffffffffff82169050919050565b6000819050919050565b82818337600083830152505050565b60005b838110156140f05780820151818401526020810190506140d5565b838111156140ff576000848401525b50505050565b6000600282049050600182168061411d57607f821691505b6020821081141561413157614130614240565b5b50919050565b6141408261429e565b810181811067ffffffffffffffff8211171561415f5761415e61426f565b5b80604052505050565b6000614173826140b9565b91507fffffffffffffffffffffffffffffffffffffffffffffffffffffffffffffffff8214156141a6576141a56141e2565b5b600182019050919050565b60006141bc826140b9565b91506141c7836140b9565b9250826141d7576141d6614211565b5b828206905092915050565b7f4e487b7100000000000000000000000000000000000000000000000000000000600052601160045260246000fd5b7f4e487b7100000000000000000000000000000000000000000000000000000000600052601260045260246000fd5b7f4e487b7100000000000000000000000000000000000000000000000000000000600052602260045260246000fd5b7f4e487b7100000000000000000000000000000000000000000000000000000000600052604160045260246000fd5b6000601f19601f8301169050919050565b7f202d2d204e465420233a20000000000000000000000000000000000000000000600082015250565b7f4552433732313a207472616e7366657220746f206e6f6e20455243373231526560008201527f63656976657220696d706c656d656e7465720000000000000000000000000000602082015250565b7f4552433732313a207472616e736665722066726f6d20696e636f72726563742060008201527f6f776e6572000000000000000000000000000000000000000000000000000000602082015250565b7f4572726f723a20626f7373206d757374206861766520485020746f206174746160008201527f636b20626f73732e000000000000000000000000000000000000000000000000602082015250565b7f4552433732313a20746f6b656e20616c7265616479206d696e74656400000000600082015250565b7f222c20226465736372697074696f6e223a2022416e2065706963204e4654222c60008201527f2022696d616765223a2022697066733a2f2f0000000000000000000000000000602082015250565b7f2c20226d61785f76616c7565223a000000000000000000000000000000000000600082015250565b7f4552433732313a207472616e7366657220746f20746865207a65726f2061646460008201527f7265737300000000000000000000000000000000000000000000000000000000602082015250565b7f4552433732313a20617070726f766520746f2063616c6c657200000000000000600082015250565b7f4552433732313a206f70657261746f7220717565727920666f72206e6f6e657860008201527f697374656e7420746f6b656e0000000000000000000000000000000000000000602082015250565b7f4552433732313a20617070726f76652063616c6c6572206973206e6f74206f7760008201527f6e6572206e6f7220617070726f76656420666f7220616c6c0000000000000000602082015250565b7f4552433732313a2062616c616e636520717565727920666f7220746865207a6560008201527f726f206164647265737300000000000000000000000000000000000000000000602082015250565b7f4552433732313a206f776e657220717565727920666f72206e6f6e657869737460008201527f656e7420746f6b656e0000000000000000000000000000000000000000000000602082015250565b7f4572726f723a20636861726163746572206d757374206861766520485020746f60008201527f2061747461636b20626f73732e00000000000000000000000000000000000000602082015250565b7f7d205d7d00000000000000000000000000000000000000000000000000000000600082015250565b7f4552433732313a206d696e7420746f20746865207a65726f2061646472657373600082015250565b7f4552433732313a20617070726f76656420717565727920666f72206e6f6e657860008201527f697374656e7420746f6b656e0000000000000000000000000000000000000000602082015250565b7f7b226e616d65223a202200000000000000000000000000000000000000000000600082015250565b7f4552433732313a20617070726f76616c20746f2063757272656e74206f776e6560008201527f7200000000000000000000000000000000000000000000000000000000000000602082015250565b7f646174613a6170706c69636174696f6e2f6a736f6e3b6261736536342c000000600082015250565b7f4552433732313a207472616e736665722063616c6c6572206973206e6f74206f60008201527f776e6572206e6f7220617070726f766564000000000000000000000000000000602082015250565b7f222c202261747472696275746573223a205b207b202274726169745f7479706560008201527f223a20224865616c746820506f696e7473222c202276616c7565223a20000000602082015250565b7f7d2c207b202274726169745f74797065223a202241747461636b2044616d616760008201527f65222c202276616c7565223a2000000000000000000000000000000000000000602082015250565b6148a18161404f565b81146148ac57600080fd5b50565b6148b881614061565b81146148c357600080fd5b50565b6148cf8161406d565b81146148da57600080fd5b50565b6148e6816140b9565b81146148f157600080fd5b5056fe506c617965722061747461636b656420626f73732e204e657720626f73732068703a2025734142434445464748494a4b4c4d4e4f505152535455565758595a6162636465666768696a6b6c6d6e6f707172737475767778797a303132333435363738392b2f426f73732061747461636b656420706c617965722e204e657720706c617965722068703a2025730a4d696e746564204e465420772f20746f6b656e496420257320616e6420636861726163746572496e6465782025730a506c6179657220772f206368617261637465722025732061626f757420746f2061747461636b2e2048617320257320485020616e64202573204144a2646970667358221220f3d6dcd42ba9669a34153d363619eee3178e2f4159502bb5397b6b3fb017dd1b64736f6c63430008040033446f6e6520696e697469616c697a696e6720257320772f2048502025732c20696d67202573446f6e6520696e697469616c697a696e6720626f737320257320772f2048502025732c20696d67202573",
  "linkReferences": {},
  "deployedLinkReferences": {}
}